:100000000C94BD000C94E5000C94E5000C948A104F
:100010000C948A100C948A100C94E5000C94D60F62
:100020000C94E5000C94E5000C94E5000C94E500BC
:100030000C94E5000C94E5000C94E5000C94E500AC
:100040000C948C0F0C94E5000C9458100C94321006
:100050000C94E5000C94E5000C94E5000C94E5008C
:100060000C94E5000C94E50007634236B79BD8A7D3
:100070001A39685618AEBAAB558C1D3CB7CC5763CD
:10008000BD6DEDFD753EF6177231BF000000803F7B
:1000900008000000BE922449123EABAAAA2ABECD97
:1000A000CCCC4C3E00000080BEABAAAAAA3E000009
:1000B0000000BF000000803F000000000008417801
:1000C000D3BB4387D1133D190E3CC3BD4282AD2B38
:1000D0003E68EC8276BED98FE1A93E4C80EFFFBE30
:1000E00001C4FF7F3F0000000000CDCCCC3D0AD70B
:1000F000233C17B7D13877CC2B329595E6241FB126
:100100004F0A000020410000C84200401C4620BCAD
:10011000BE4CCA1B0E5AAEC59D74020000000024DE
:100120000027002A0000000008000201000003046C
:10013000070000000000000000000000002300266F
:1001400000290000000000250028002B0004040402
:100150000404040404020202020202030303030370
:10016000030102040810204080010204081020014D
:100170000204081020004711941711241FBECFEF6E
:10018000D8E0DEBFCDBF23E0AEE0B2E001C01D92FB
:10019000A336B207E1F712E0A0E0B1E0E0E1FAE354
:1001A00002C005900D92AE30B107D9F710E0CCEB4C
:1001B000D0E004C02197FE010E94D01BCB3BD107A9
:1001C000C9F70E9413120C94FB1C0C940000CF92F0
:1001D000DF92EF92FF92CF93DF93B0915303A0E0B1
:1001E0008111AB2F8091540390E0880F991FAC01CF
:1001F000475C5E4FC0905903D0905A03E0905B0378
:10020000F0905C0330E020E0FA01C591D491E881E0
:10021000B90190E080E0EB23EA130AC02F5F3F4F63
:100220006C157D058E059F0578F36FEF7FEFCB0191
:10023000DF91CF91FF90EF90DF90CF90089590E005
:10024000FC01EB5DFE4F2491FC01EF59FE4F349110
:10025000FC01E35BFE4FE491EE23C9F0222339F069
:10026000233001F1A8F4213019F1223029F1F0E016
:10027000EE0FFF1FED5BFE4FA591B4918FB7F89481
:10028000EC91611126C030953E233C938FBF0895B9
:100290002730A9F02830C9F0243049F78091800038
:1002A0008F7D03C0809180008F7780938000DFCFA7
:1002B00084B58F7784BDDBCF84B58F7DFBCF8091F4
:1002C000B0008F778093B000D2CF8091B0008F7D47
:1002D000F9CF3E2BDACFCF93DF9390E0FC01EF59BB
:1002E000FE4F2491835B9E4FFC0184918823C9F0CB
:1002F00090E0880F991FFC01E55EFE4FA591B49137
:10030000FC01ED5BFE4FC591D49161110DC09FB70B
:10031000F8948C91209582238C93888128232883BC
:100320009FBFDF91CF910895623051F49FB7F89449
:100330003C91822F809583238C93E8812E2BEFCFE5
:100340008FB7F894EC912E2B2C938FBFEACF3FB749
:10035000F89480917D0290917E02A0917F02B091ED
:10036000800226B5A89B05C02F3F19F00196A11D5C
:10037000B11D3FBFBA2FA92F982F8827BC01CD01EF
:10038000620F711D811D911D42E0660F771F881F4E
:10039000991F4A95D1F708958F929F92AF92BF927D
:1003A000CF92DF92EF92FF924B015C010E94A70176
:1003B0006B017C010E94A7016C197D098E099F09C0
:1003C000683E734081059105A8F321E0821A9108E7
:1003D000A108B10888EEC80E83E0D81EE11CF11C0C
:1003E00081149104A104B10429F7FF90EF90DF90EC
:1003F000CF90BF90AF909F908F9008952FB7F894B3
:100400006091790270917A0280917B0290917C02D6
:100410002FBF0895CF92DF92EF92FF920F931F9319
:10042000CF93DF93CDB7DEB7C054D1400FB6F89469
:10043000DEBF0FBECDBF0E94FE010091550310919B
:10044000560320915703309158036B017C01C01A69
:10045000D10AE20AF30A97018601003D17402105FF
:10046000310590F480915D03C05CDE4F0FB6F894C7
:10047000DEBF0FBECDBFDF91CF911F910F91FF90D7
:10048000EF90DF90CF9008956093550370935603DB
:1004900080935703909358031092500310924F0388
:1004A00010924E0310924D0310924C0362E0809123
:1004B00051030E946B0161E070E080E090E00E94D7
:1004C000CC0161E0809151030E946B0160E080915A
:1004D00051030E941F01809152038551823020F503
:1004E0008BE291E10197F1F762E0809151030E9464
:1004F0006B0180915E0390E08230910538F0880FA7
:10050000991F880F991F05970197F1F7F89480E0DC
:100510000E94E7006F3F7F4F8F4F9F4F61F4109213
:100520005D03789480E0A0CF64E170E080E090E02B
:100530000E94CC01D9CF81E00E94E7006F3F7F4F3E
:100540008F4F9F4F61F38E010F5F1F4F6E012FEB97
:10055000C21A2EEFD20A780180E00E94E700F7016C
:10056000608371838283938381E00E94E700F701B7
:100570006483758386839783F8E0EF0EF11CEC1497
:10058000FD0451F7789430E020E0F801C080D1807C
:10059000E280F3804481558166817781FFEFCF1639
:1005A000DF06EF06FF0631F04F3F8FEF5807680771
:1005B000780719F410925D03B5CFF90183E0F59542
:1005C000E7958A95E1F7E45BFC4F8081880FC416BC
:1005D000D506E606F70610F180832F5F3F4F085FD0
:1005E0001F4F2832310589F64091500320914C036A
:1005F00080914D03280F3327331F80914E03280F1E
:10060000311D80914F03820F932F911D9927481719
:10061000190681F681E080935D0326CF8160DCCFEF
:100620009091000189130BC0EAE1F1E0E4919FEFA2
:1006300090930001E13049F028F0E23061F060E091
:100640000C941F0110926E00FACF90916F009D7F65
:1006500090936F00F4CF909170009D7F9093700005
:1006600091E09093B0009091B100987F9460909346
:10067000B1001092B300E3CFAF92BF92CF92DF925E
:10068000EF92FF920F931F93CF93DF936C017B0147
:100690008B01040F151FEB015E01AE18BF08C017D8
:1006A000D10759F06991D601ED91FC910190F0814B
:1006B000E02DC6010995892B79F7C501DF91CF910E
:1006C0001F910F91FF90EF90DF90CF90BF90AF9070
:1006D0000895FC01538D448D252F30E0842F90E048
:1006E000821B930B541710F0CF960895019708952D
:1006F000FC01918D828D981761F0A28DAE0FBF2FF6
:10070000B11D5D968C91928D9F5F9F73928F90E04B
:1007100008958FEF9FEF0895FC01918D828D9817BA
:1007200031F0828DE80FF11D858D90E008958FEFF7
:100730009FEF0895FC01918D228D892F90E0805CC0
:100740009F4F821B91098F739927089581E892E04A
:100750000E949A0321E0892B09F420E0822F08955A
:1007600080E090E0892B29F00E94A60381110C946F
:1007700000000895FC01A48DA80FB92FB11DA35A44
:10078000BF4F2C91848D90E001968F739927848FB1
:10079000A689B7892C93A089B1898C9183708064D4
:1007A0008C93938D848D981306C00288F389E02D75
:1007B00080818F7D80830895EF92FF920F931F9326
:1007C000CF93DF93EC0181E0888F9B8D8C8D981304
:1007D0001AC0E889F989808185FF15C09FB7F89410
:1007E000EE89FF896083E889F9898081837080645C
:1007F00080839FBF81E090E0DF91CF911F910F91A7
:10080000FF90EF900895F62E0B8D10E00F5F1F4FB5
:100810000F731127E02E8C8D8E110CC00FB607FCC4
:10082000FACFE889F989808185FFF5CFCE010E9452
:10083000BA03F1CFEB8DEC0FFD2FF11DE35AFF4F03
:10084000F0829FB7F8940B8FEA89FB8980818062E0
:10085000CFCFCF93DF93EC01888D8823B9F0AA899D
:10086000BB89E889F9898C9185FD03C0808186FD6B
:100870000DC00FB607FCF7CF8C9185FFF2CF8081BA
:1008800085FFEDCFCE010E94BA03E9CFDF91CF9172
:10089000089520915002309151022817390771F4C0
:1008A00090914E0280914F02981741F0E0914E02D4
:1008B000F0E0E25FFD4F808190E008958FEF9FEFC1
:1008C00008950895EF92FF920F931F93CF93DF93B4
:1008D000DC015C96ED90FC905D97E114F10479F4F5
:1008E00081E090E013969C938E93129790E080E0C5
:1008F000DF91CF911F910F91FF90EF900895519646
:10090000ED91FC91529750968C915097982F90951D
:100910000FB75E962C915E97122F127021FD609595
:10092000F8942081112319F1282B2083E7012197C6
:10093000F1F728E0462F50E0308160FF1AC0382BD5
:100940003083E7012197F1F7BA017595679521503A
:1009500089F7112381F08081892380830FBF5C9602
:100960008D919C910197F1F781E090E0C1CF29230F
:10097000DCCF3923E5CF9081892BEFCF2091500236
:10098000309151022817390761F480914F0220916C
:100990004E0290E0805C9F4F821B91098F739927D4
:1009A000089590E080E00895209150023091510226
:1009B00028173907B9F490914E0280914F02981789
:1009C00089F0E0914E02F0E0E25FFD4F80812091DE
:1009D0004E0230E02F5F3F4F2F73332720934E029C
:1009E00090E008958FEF9FEF089590E080E00895E4
:1009F000CF93DF93EC0188819981DC01ED91FC912B
:100A00000190F081E02D09952A813B81820F931F8F
:100A10009B838A83DF91CF910895982F80336CF068
:100A20008A3324F08F3524F08B3724F481E0089545
:100A300081341CF081E09B350CF080E00895CF9369
:100A4000DF93EC0188819981DC01ED91FC910280BA
:100A5000F381E02D09952A813B81820F931F9B83AF
:100A60008A83DF91CF9108958F929F92AF92BF9228
:100A7000CF92DF92EF92FF920F931F93CF93DF936A
:100A8000CDB7DEB766970FB6F894DEBF0FBECDBF09
:100A90006C018E01095E1F4F78018AE0882E912C2F
:100AA000A12CB12CCB01BA01A50194010E94AE1B6F
:100AB000942F852F605DF80162938F01A901692F42
:100AC000782F411551056105710561F7A7014E1B8E
:100AD0005F0BBF01C6010E941F0566960FB6F89412
:100AE000DEBF0FBECDBFDF91CF911F910F91FF9061
:100AF000EF90DF90CF90BF90AF909F908F90089530
:100B0000CF92DF92EF92FF920F931F93CF93DF93D9
:100B1000EC018C85811130C009851A850E94FE0187
:100B2000D80118966D937D938D939C931B97D80154
:100B3000ED91FC910284F385E02DC801099597FFA2
:100B400025C00E94FE01F801C084D184E284F384B0
:100B50006C197D098E099F09C480D580E680F780D5
:100B60006C157D058E059F0510F38FEF9FEF97FDA8
:100B700080E08B8781E08C878B85DF91CF911F91FF
:100B80000F91FF90EF90DF90CF9008959927EFCFCE
:100B90001F93CF93DF93EC01162F0E9480058113E2
:100BA00006C01C8681E0DF91CF911F91089580E0FF
:100BB000FACF0F931F93CF93DF938C01EB018991B1
:100BC000882369F0C8010E948005882379F0FE011E
:100BD0003197908198130DC0F8011486F0CF90E002
:100BE00080E0DF91CF911F910F91089582E090E016
:100BF000F8CF83E090E0F5CFCF93DF93EC01CE0107
:100C00000E9480058B304CF489305CF4882359F0C5
:100C100081E0888790E080E00BC08D3011F0803259
:100C2000B9F71C86ECCF8885811105C081E090E082
:100C3000DF91CF91089582E090E0FACFFC0124810A
:100C40003581A9014F5F5F4F86819781481759070A
:100C500048F48281938155834483FC01E20FF31FA2
:100C6000608308950190F081E02D81E080870895F0
:100C70009F92AF92BF92CF92DF92EF92FF920F932B
:100C80001F93CF93DF9300D000D01F92CDB7DEB774
:100C90008C010E948005D82ED8011C961C92F12C44
:100CA000E12C60EFC62EC8010E948005F801148671
:100CB000D81609F4B4C0811113C082E090E00F90FF
:100CC0000F900F900F900F90DF91CF911F910F9188
:100CD000FF90EF90DF90CF90BF90AF909F900895DE
:100CE0008C3509F09AC0C8010E948005882329F339
:100CF000E7E3F1E0853709F084C0D8011C961C9227
:100D000054E0952EB12CA12CC8010E9480058823A7
:100D1000A1F2813434F48053803130F083E090E0EC
:100D2000CECF8F7D8753F8CF44E0AA0CBB1C4A95E9
:100D3000E1F7A82AF80114869A949110E5CFC5012D
:100D4000985D8115944020F47501F3E0FF22ABCF4C
:100D5000C5019C5D81159440A8F483E0B822B701D9
:100D6000762F6627770F770F6A297B2990E080E03E
:100D70000196603871058105910540F4C8010E9413
:100D80001E0691CFB50190E080E0F3CF1982262FA7
:100D90002F7320682A8326E0969587957795679527
:100DA0002A95D1F76032710580F4606C6B835E0127
:100DB000A4E0AA0EB11CD5016E915D01662309F471
:100DC00072CFC8010E941E06F6CF262F2F7320680F
:100DD0002B8386E0769567958A95E1F760317105FA
:100DE00038F4606E6C835E01B5E0AB0EB11CE3CFEE
:100DF00060686C83CD825E01E6E0AE0EB11CDBCF95
:100E000032969081992309F489CF8913F9CF818192
:100E1000882309F483CFF8011486682FAFCF01909F
:100E2000F081E02D8085882319F084E090E047CFA1
:100E300090E080E044CF4F925F926F927F928F92CA
:100E40009F92AF92BF92CF92DF92EF92FF920F9359
:100E50001F93CF93DF93EB01DC012C912B32D9F15F
:100E60002D32D1F50196FF24F394FC01208130ED61
:100E7000320F3A3018F02E3209F042C18C0160E096
:100E800070E0CB01F801219130ED832E820E39E024
:100E9000381520F16A3949E97407840749E1940754
:100EA00038F5AAE0B0E09B01AC010E94DC18912C5F
:100EB000B12CA12C2401350140945094609470947D
:100EC000461657066806790698F0680D791D8A1D42
:100ED0009B1D8F01D7CF0196F12CC7CF211108C0E0
:100EE000FF20E9F161307105810550E89507A0F018
:100EF000E12CBAE08B2E912CA12CB12C611571053F
:100F000030E883079105B0F1A50194010E94AE1B62
:100F1000CA01B901E394F2CF2C8120782A602C8396
:100F20009B01AC0188279927DC01821B930BA40B42
:100F3000B50B88839983AA83BB838F2DDF91CF91D3
:100F40001F910F91FF90EF90DF90CF90BF90AF90E7
:100F50009F908F907F906F905F904F9008952C811D
:100F6000207828602C83688379838A839B83FF247D
:100F7000F394E3CFF801D8012D918D0130ED320FBC
:100F80003A3010F4E394F6CF2E3201F58F010F5F63
:100F90001F4FF8010F5F1F4F2081A0EDDA2ED20EF8
:100FA000B9E0BD1598F06C3CECEC7E07ECE08E07E8
:100FB000910578F7AAE0B0E09B01AC010E94DC1833
:100FC0006D0D711D811D911DEA94E3CF20812F7D50
:100FD00010E000E0253409F05BC021812D32D1F50D
:100FE0003296CC24C394DF0110E000E02E2D0E2CAD
:100FF000000C330B5AE0B52EFD01DD9040ED4D0D98
:101000004A3008F040C0B09EA001B19E500D11249E
:101010000D2DDD0C110B00531109040F151FA80134
:10102000420F531F473251053CF38C81CC20C9F04D
:1010300040E050E060E070E8F11003C040E050E0B4
:10104000BA0180788C608C83488359836A837B8360
:10105000FC2C73CF2B3219F03196C12CC4CF3296B1
:10106000FCCF40E050E060E87FEFF11004C040E0CA
:1010700050E060E87FE780788C608C8348835983F8
:101080006A837B8374CFCC2019F0119501951109E7
:101090002081211135C00E0D111DE7FC1A950E940B
:1010A000BD1732E0C32E31E0D32E101611063CF0EE
:1010B0001195019511094AEEC42E40E0D42EE12C81
:1010C0000115110591F000FF0CC024E0E29EF00133
:1010D0001124EC0DFD1D25913591459154910E94EF
:1010E0001E1815950795E394EBCFF11090582C81BD
:1010F00020782C602C83688379838A839B8337CF05
:10110000F12C1BCFCF92DF92EF92FF92CF93DF9320
:1011100000D000D01F92CDB7DEB7FC0184818F775D
:10112000863091F030F4843040F560E070E0CB011F
:101130000FC08A30C9F08C3069F18830B1F7608116
:1011400071818281938104C0608170E090E080E0D1
:101150000F900F900F900F900F90DF91CF91FF9015
:10116000EF90DF90CF90089580819181A281B3812B
:10117000B7FDDBCFBC01CD01EBCF808191811D821A
:10118000BE016F5F7F4F0E941B07CE0101960E9438
:101190008208DECFC080D180E280F38020E030E0A2
:1011A000A901C701B6010E940B1A87FDBECF2FEF20
:1011B0003FEF4FE75FE4C701B6010E94B81718166A
:1011C0000CF4B3CFC701B6010E94DC19C1CFCF9296
:1011D000DF92EF92FF92CF93DF9300D000D01F9267
:1011E000CDB7DEB7FC0184818F778630B9F028F463
:1011F000843088F590E080E013C08A30E9F08C30CC
:10120000B9F18830B9F780819181A281B3818115CC
:1012100020E89207A105B10568F702C0808190E03F
:101220000F900F900F900F900F90DF91CF91FF9044
:10123000EF90DF90CF90089580819181A281B3815A
:10124000AC01BD0150586F4F7F4F411551056140B2
:10125000710580F6E5CF808191811D82BE016F5FAF
:101260007F4F0E941B07CE0101960E94E708D8CF4E
:10127000C080D180E280F38020E030E040E057EC95
:10128000C701B6010E940B1A87FDB4CF20E03EEFE4
:101290004FEF56E4C701B6010E94B81718160CF4B8
:1012A000A9CFC701B6010E94D519CB01B9CFCF9301
:1012B000DF93DC01EB01EC81FD818A819B81089643
:1012C000E817F90740F481E08887F0E0E0E0CF011B
:1012D000DF91CF9108953897FD83EC833097B9F370
:1012E0001296CD91DC911397209791F0CF018C1B32
:1012F0009D0B23E0959587952A95E1F78D831396AD
:10130000FC93EE9312971582148217821682DFCF18
:101310001196FC93EE93F3CFEF92FF920F931F93EE
:10132000CF93DF937C01DC0112962D913C911397B2
:10133000ED91FC91AB01420F531FEF01C60FD71F78
:10134000C217D307A0F4888181110BC0E901CF0136
:101350004C175D0751F00991DC011D91CD0101177A
:10136000B9F381918111FDCFE8CF309751F4620F2D
:10137000731FCB010196F70193838283DB011C92DB
:10138000F901CF01DF91CF911F910F91FF90EF9065
:101390000895FC012581222339F0F8E02F02900105
:1013A0001124820F931F089590E080E00895FC01BE
:1013B00001900020E9F73197AF01481B590BBC01A0
:1013C00081E892E00C943C038F929F92AF92BF927F
:1013D0000F931F93CF93DF93CDB7DEB7A1970FB6CF
:1013E000F894DEBF0FBECDBF19A2423008F44AE028
:1013F0008E010F5D1F4F842E912CB12CA12CA501C5
:1014000094010E94AE1BE62FB901CA01EA30F4F440
:10141000E05DD801EE938D01232B242B252B79F74A
:1014200090E080E0109719F0CD010E94D709A196B5
:101430000FB6F894DEBF0FBECDBFDF91CF911F91E5
:101440000F91BF90AF909F908F900895E95CE1CF8E
:10145000CF93DF93D0E0C0E0009719F00E94D70946
:10146000EC0188E491E00E94D7098C0F9D1FDF9169
:10147000CF910895CF93DF936115710579F1EB0159
:10148000DC018D919C91009759F1DC011696ED914C
:10149000FC91DE010D900020E9F71197AD014C1B86
:1014A0005D0B30E020E0309749F0DF010D90002027
:1014B000E9F79D01215031092E1B3F0B24173507F9
:1014C00051F4DE012C0F3D1F2A173B0749F05D91B7
:1014D00041915417C9F30E94C909D5CF90E080E02B
:1014E000DF91CF9108959F92AF92BF92CF92DF92FA
:1014F000EF92FF920F931F93CF93DF93EC017B0149
:10150000D42E0E94FC058C01892B09F052C0CE011B
:101510000E948005863609F455C194F5873229F07A
:101520008B35D1F1823209F056C1E881F98182818F
:1015300093819B838A838481958122813381821B5D
:10154000930B9F838E831D821C82892B11F481E073
:101550008087CE010E9438068C01892B51F5AC8022
:10156000BD80B501888199810E948C09F701248191
:1015700020782560248391838083B382A28219C05E
:10158000843709F408C18B3709F453C08E3609F04B
:1015900022C166E571E008C1F7018481807880642A
:1015A00084831182108213821282D1100FC005E051
:1015B00010E0C801DF91CF911F910F91FF90EF9044
:1015C000DF90CF90BF90AF909F9008951C86CE0182
:1015D0000E94FC05009709F02DC16DE5CE010E9427
:1015E000C8058111E6CFDA946D857E85C7010E941A
:1015F0005709009709F46EC04D2DBC01CE010E9421
:10160000730A009709F016C1CE010E94FC050097ED
:1016100009F010C16DE5CE010E94C8058111C9CF46
:101620006CE2CE010E94C8058111DECF03E010E01C
:10163000C0CFF70184818078806284831182108218
:1016400013821282DD2009F4B2CF1C86CE010E94E3
:10165000FC05009709F0EEC06DE7CE010E94C805B9
:101660008111A7CFBB24B394DA94E881F9818281F8
:1016700093819B838A838481958122813381821B1C
:10168000930B9F838E831D821C82892B09F4B08665
:10169000CE010E948005873201F18232F1F0CE0145
:1016A0000E948005182F0E940D05882309F4BECFE3
:1016B0001C86612FCE010E941E06CE010E9480056D
:1016C000182F0E940D058111F3CFE881F9818085E3
:1016D000882351F004E010E06CCFCE010E94380660
:1016E0008C01892B09F065CFCE010E94FC058C018D
:1016F000892B09F05ECF6AE3CE010E94C8058823DA
:1017000009F494CFEA81FB818C819D81E80FF91F58
:1017100010820C811D816A817B81C7010E943A0A77
:10172000BC01892BA1F4B801888199810E948C09A0
:101730008C016D857E85C7010E945709FC01892BAC
:1017400049F284818068848317830683BF014D2D0D
:10175000CE010E94730A8C01892B09F02ACFCE0199
:101760000E94FC058C01892B09F023CF6DE7CE0187
:101770000E94C80581111DCF6CE2CE010E94C805F0
:10178000882309F453CFCE010E94FC058C01892BDC
:1017900009F46BCF0ECFF701848180788660848353
:1017A00081E080836BE471E0CE01DF91CF911F91E6
:1017B0000F91FF90EF90DF90CF90BF90AF909F90F0
:1017C0000C94D905F7018481807886608483108227
:1017D00060E571E0E9CFCE010E9480055E01FFE087
:1017E000AF0EB11CD12C9A2CCB2C803374F08A33E1
:1017F00074F49FE3D91699F01C86D394F501819374
:101800005F01CE010E948005F0CF8B3291F393ED02
:10181000980F923070F3982F9F7D953451F3CD0D32
:10182000D11D1F86B701892D9C2D0E941B07811198
:10183000C0CEFCCE8C01BDCECF93DF93EC01909156
:101840002C03892F8F7761F49078906290932C030A
:10185000109229031092280310922B0310922A034E
:1018600080912C0385FF1AC02097C1F0BE0188E249
:1018700093E00E943A0A009771F46FE173E088E206
:1018800093E00E945709009731F0FC0124812F77E3
:101890002483D783C683DF91CF91089590E080E0C1
:1018A000FACFFC01248125FD0C943A0A90E080E0F7
:1018B0000895FB0101900020E9F73197AF01461B25
:1018C000570B0C941F051F93CF93DF93E7E3F1E0D1
:1018D0001281112379F0329621816213F9CFEC0144
:1018E0006CE50E94F804612FCE01DF91CF911F912A
:1018F0000C94F8046111F9CF6BE571E0DF91CF91A1
:101900001F910C94590C2F923F924F925F926F92BD
:101910007F928F929F92AF92BF92CF92DF92EF927F
:10192000FF920F931F93CF93DF93CDB7DEB76C97E2
:101930000FB6F894DEBF0FBECDBF8C011B01DC01DA
:1019400014968C9114978F77863009F499C268F5B4
:101950008230A0F11296ED90FC901397CC901196E6
:10196000DC90843008F05DC2A701B601C1010E947D
:101970001F05F101828193816C960FB6F894DEBF4A
:101980000FBECDBFDF91CF911F910F91FF90EF90D0
:10199000DF90CF90BF90AF909F908F907F906F908F
:1019A0005F904F903F902F9008958C3069F160F4D4
:1019B000883009F460C28A3009F446C266E571E0F5
:1019C000C1010E94590CECC1803209F4F3C180348A
:1019D000A9F76BE5C1010E94F804F80100811181AB
:1019E0000115110509F4E1C1B101C8010E94830C80
:1019F000C8010E94C9098C01892B09F4D6C16CE287
:101A0000C1010E94F804ECCFF801C080D180E280CF
:101A1000F380A7019601C701B6010E94B817811192
:101A2000CDCF20E030E0A901C701B6010E94B81770
:101A3000882379F0A7019601C701B6010E94F71823
:101A40009B01AC01C701B6010E94B817882309F4B5
:101A5000B5CF20E030E0A901C701B6010E94B81758
:101A600087FF08C06DE2C1010E94F804F7FAF09404
:101A7000F7F8F09420E836E948E15BE4C701B601E5
:101A80000E940B1A87FD88C074E1A72EB12C00E2DA
:101A900010E0188E1F8AF501EE5FFE4F659175917B
:101AA00085919491A70196010E94B81718169CF091
:101AB000F501E651FF4F2591359145915491C701AC
:101AC000B6010E941E186B017C012F89388D200FF2
:101AD000311F388F2F8B1595079534E0A31AB10865
:101AE0008CEFA8168FEFB806B1F655245A9420E073
:101AF00030E0A901C701B6010E940B1A18160CF0BC
:101B000052C02CEA35EC47E257E3C701B6010E9408
:101B1000B81718160CF447C0A52DB4E0AB02C001ED
:101B20001124B12CA12CFC01E651FF4F3F019C0177
:101B30002E5F3E4F49013FEF531609F434C0F301C5
:101B4000EA0DFB1D659175918591949120E030E03F
:101B500040E251E40E941E18A70196010E940B1A50
:101B600018169CF4F401EA0DFB1D25913591459161
:101B70005491C701B6010E941E186B017C018F8928
:101B8000988D801B910B988F8F8B159507955A9484
:101B900094E0A91AB108CFCF00E210E055E0552E2D
:101BA000188E1F8AA4CFC701B6010E94DC194B0111
:101BB0005C012B013C0106E080E492E4AFE0B0E080
:101BC000898F9A8FAB8FBC8F102F01509AE04916E6
:101BD000510461047104C8F0698D7A8D8B8D9C8DE0
:101BE0002AE030E040E050E00E94AE1B298F3A8F9F
:101BF0004B8F5C8FC301B2012AE030E040E050E03F
:101C00000E94AE1B29013A01DFCFC501B4010E9439
:101C1000BD179B01AC01C701B6010E94F6186B010C
:101C20007C01698D7A8D8B8D9C8D0E94BD179B01E7
:101C3000AC01C701B6010E941E182B013C010E9495
:101C4000DC196B017C010E94BD179B01AC01C30133
:101C5000B2010E94F6189B01AC010E94F7180E9485
:101C6000DC19C60ED71EE81EF91E898D9A8DAB8D24
:101C7000BC8DC816D906EA06FB06D8F09FEF891A74
:101C8000990AA90AB90AAF89B88DAB2B39F1BAE024
:101C90008B169104A104B10408F1EF89F88D3196F7
:101CA000F88FEF8BC12CD12C7601812C912C540113
:101CB00083942AE0422E512C612C712CC701B6016D
:101CC000A30192010E94AE1B672B682B692B51F474
:101CD000111644F469017A011150F0CFC12CD12CB6
:101CE0007601E7CFB501A401C1010E94340511239B
:101CF00071F14E01F1E18F0E911C012F54019AE018
:101D0000492E512C612C712C015068F0C701B6018D
:101D1000A30192010E94AE1B605DD4016E934D0140
:101D200069017A01F1CF812F90E0BC016095709537
:101D3000F501E81BF90B31978EE280834427552784
:101D4000461B570B6A0D7B1DC1010E941F05EF89C1
:101D5000F88DEF2B29F165E6C1010E94F8040F8987
:101D6000188D17FF07C06DE2C1010E94F80411959C
:101D700001951109FE0177969F018AE0E82EF12C6A
:101D8000C801B7010E949A1B805D82938B01672B6B
:101D9000B9F7A9014E1B5F0BBF01C1010E941F05CE
:101DA000D10112968D919C91E7CD6DE5C1010E9404
:101DB000F804F6CF6BE7C1010E94F804F801008136
:101DC00011810115110559F1D8011696CC9016977D
:101DD0001796DC9062E2C1010E94F8047601F701D7
:101DE00061917F01662321F0C1010E94630CF7CF4E
:101DF00062E2C1010E94F8046AE3C1010E94F80492
:101E0000B101C8010E94830CC8010E94C9098C015C
:101E1000892B29F06CE2C1010E94F804D2CF6DE752
:101E2000C5CF62E2C1010E94F8048601E00EF11EF6
:101E3000E016F10639F0F80161918F01C1010E94AD
:101E4000630CF6CF62E2B2CFCD90DD90ED90FC90C6
:101E5000B701A601F7FE0BC06DE2C1010E94F804B4
:101E600044275527BA014C195D096E097F09C10144
:101E70000E9434057ECD4D915D916D917C91F7CF9F
:101E80008C916BE471E0811102C060E571E0C101E9
:101E90000E94590C6ECDCF93DF9300D000D0CDB708
:101EA000DEB721E832E03A8329831C821B82009747
:101EB00061F0BE016F5F7F4F0E94830C0F900F9007
:101EC0000F900F90DF91CF91089566E571E0CE01FC
:101ED00001960E94590C8B819C81F0CF0F931F9328
:101EE000CF93DF93EC018B01CB010E94D61B080F2F
:101EF000191F009711F410E000E09A8389839C83F6
:101F00008B831E830D8318870F8319861E86DF91AE
:101F1000CF911F910F9108951F920F920FB60F92BC
:101F200011242F933F938F939F93AF93BF938091EF
:101F3000790290917A02A0917B02B0917C0230915B
:101F4000780223E0230F2D3758F50196A11DB11D0E
:101F5000209378028093790290937A02A0937B0277
:101F6000B0937C0280917D0290917E02A0917F02CD
:101F7000B09180020196A11DB11D80937D029093C6
:101F80007E02A0937F02B0938002BF91AF919F9198
:101F90008F913F912F910F900FBE0F901F9018952A
:101FA00026E8230F0296A11DB11DD2CF1F920F92DA
:101FB0000FB60F9211242F933F934F935F936F931C
:101FC0007F938F939F93AF93BF93EF93FF938091F2
:101FD000570290915802A0915902B0915A02892B50
:101FE0008A2B8B2BD1F190915202E0915302F09108
:101FF00054028081892780838091570290915802F2
:10200000A0915902B0915A02181619061A061B0619
:102010009CF48091570290915802A0915902B0917E
:102020005A020197A109B10980935702909358026F
:10203000A0935902B0935A02FF91EF91BF91AF91D3
:102040009F918F917F916F915F914F913F912F91D0
:102050000F900FBE0F901F901895809100010E9465
:102060001003EACF1F920F920FB60F9211242F93F5
:102070003F934F935F936F937F938F939F93AF9310
:10208000BF93EF93FF9381E892E00E94BA03FF9120
:10209000EF91BF91AF919F918F917F916F915F91E0
:1020A0004F913F912F910F900FBE0F901F90189559
:1020B0001F920F920FB60F9211242F938F939F931D
:1020C000EF93FF93E0919102F09192028081E09171
:1020D0009702F091980282FD1BC0908180919A0234
:1020E0008F5F8F7320919B02821741F0E0919A02DB
:1020F000F0E0EF57FD4F958F80939A02FF91EF919B
:102100009F918F912F910F900FBE0F901F90189558
:102110008081F4CF1F920F920FB60F9211242F934C
:102120003F934F935F936F937F938F939F93AF935F
:10213000BF93EF93FF93E0915002F09151023097DB
:1021400049F0A685B7858585968D91FF14C09C9131
:102150008923A1F4FF91EF91BF91AF919F918F914E
:102160007F916F915F914F913F912F910F900FBE93
:102170000F901F9018959C91892361F7A389B489CA
:102180009C918589809589238C938689978901976D
:10219000F1F7608D718DA685B785558538E020E013
:1021A000CB010197F1F7822F90E095958795282F25
:1021B0004C91452309F02068315091F7868D81FDBF
:1021C000209580914F0290E001968F73992730916E
:1021D0004E02381799F0A0914F02B0E0A25FBD4FB8
:1021E0002C9380934F02828D938D0197F1F7A389F1
:1021F000B4898C919589892B8C93ACCF868D816025
:10220000868FF1CFCF92DF92EF92FF920F931F93C1
:10221000E82FF92F05C0015011092109310961F199
:10222000908196239417B9F305C001501109210933
:10223000310911F1908196239413F7CFC12CD12C41
:10224000E12CF12C0AC08FEFC81AD80AE80AF80A64
:102250000C151D052E053F0579F080818623841716
:1022600091F36C2D7D2D8E2D9F2D1F910F91FF9041
:10227000EF90DF90CF90089560E070E080E090E014
:102280001F910F91FF90EF90DF90CF9008951092E3
:1022900084021092830288EE93E0A0E0B0E0809385
:1022A000850290938602A0938702B093880227E16B
:1022B00031E0309382022093810225EC30E03093AC
:1022C0008E0220938D0224EC30E030939002209314
:1022D0008F0220EC30E0309392022093910221ECA7
:1022E00030E0309394022093930222EC30E030935C
:1022F00096022093950226EC30E0309398022093CA
:10230000970210929A0210929B0210929C021092D5
:102310009D0222E02093510326E120935203E3E63D
:10232000F1E0E491E0935303EFE4F1E0E491E09312
:10233000540340E85EE360E070E04093590350933B
:102340005A0360935B0370935C0310923003109206
:102350002F038093310390933203A0933303B09300
:10236000340389E291E090932E0380932D03109221
:1023700044031092430310924603109245031092B7
:1023800048031092470310924A0310924903609148
:102390004B036E7F6D7F60934B036695617081E0A8
:1023A000682785E00E941F0161E085E00E946B01C3
:1023B000E6E6F1E0E491E0933D03E2E5F1E0E4914B
:1023C000F0E0EE0FFF1FED5BFE4F8591949190932F
:1023D0003F0380933E0360E084E00E946B018091A4
:1023E0004B0381FD04C061E084E00E941F0184E092
:1023F00080933903E5E6F1E0E491E0933A03E1E507
:10240000F1E0E491F0E0EE0FFF1FE75CFE4F8591F5
:10241000949190933C0380933B0368EC70E08EE1D1
:1024200093E00C946E0FCF93DF93CDB7DEB7C65712
:10243000D1090FB6F894DEBF0FBECDBF789484B536
:10244000826084BD84B5816084BD85B5826085BDB0
:1024500085B5816085BD80916E00816080936E003E
:102460001092810080918100826080938100809130
:1024700081008160809381008091800081608093E1
:1024800080008091B10084608093B1008091B000A1
:1024900081608093B00080917A00846080937A009C
:1024A00080917A00826080937A0080917A008160C6
:1024B00080937A0080917A00806880937A001092ED
:1024C000C100E0919102F091920282E08083E0915C
:1024D0008D02F0918E021082E0918F02F0919002B5
:1024E0008FEC808310929902E0919502F091960210
:1024F00086E08083E0919302F09194028081806174
:102500008083E0919302F0919402808188608083BF
:10251000E0919302F0919402808180688083E09141
:102520009302F091940280818F7D808362E080919C
:1025300051030E946B010E94FE01605D774081099A
:1025400091096093550370935603809357039093BA
:10255000580387E380935E03109248031092470369
:1025600010924603109245031092440310924303C5
:102570008DE991E090934A03809349039091390348
:10258000963108F047C02DEB30E0309344032093A0
:1025900043032BE931E030934603209345032CE2BB
:1025A00031E030934803209347032091680084E092
:1025B000983048F031E09E3008F430E081E001C00E
:1025C000880F3A95EAF7822B809368002DE630E079
:1025D000983050F02BE630E09E3030F02CE630E0C2
:1025E000963110F030E020E0309341032093400317
:1025F000292F30E0983008F06DC081E001C0880FCD
:102600009A95EAF7809342038091490390914A0397
:102610000197F1F78091470390914803892B49F185
:10262000E0915002F091510223E0ED32F20709F1FE
:10263000309739F0A389B4899C9185898095892345
:102640008C9380914B038E7F80934B0310924F02AB
:1026500010924E028DE293E09093510280935002CB
:10266000E0914003F0914103808190914203892BD6
:10267000808361E086E00E946B01F0E52F2E312C13
:102680002C0E3D1E8AE0280E311CA0E5B0E0AC0FF8
:10269000BD1F1196E596BFAFAEAFE597E0E5F0E060
:1026A000EC0FFD1F3A96E796FFAFEEAFE7970E945B
:1026B0000A02882341F0809152038C3009F473C0E0
:1026C000B0F48B3069F1C12CD12C50ECE52E5FE7D2
:1026D000F52E50C09E3040F42850310981E001C0F1
:1026E000880F2A95EAF78ECF2E503109F7CF855102
:1026F000823048F710914E03612F70E0762F6627E5
:1027000066277F7780914F03682B90E080E00E94DE
:10271000BD172DEC3CEC4CEC5DE30E941E185FC035
:1027200060914E0370E090E080E00E94BD176B0165
:102730007C0110914F0317FF0AC0AC019B0160E0C0
:1027400070E080E89FEB0E94F6186B017C011F701F
:10275000612F70E090E080E00E94BF172DEC3CEC10
:102760004CEC5DE30E941E18A70196010E94F71829
:102770006B017C010E940A02882351F08091520370
:102780008B3030F08D30A0F18551823008F4E1C1FA
:1027900080E090E0A0ECBFE7E3968CAF9DAFAEAFDA
:1027A000BFAFE39747C010914E03612F70E090E0F8
:1027B00080E00E94BD176B017C0160914F036F7038
:1027C00070E090E080E00E94BF172DEC3CEC4CECF8
:1027D0005DE30E941E18A70196010E94F7186B0185
:1027E0007C0117FFC7CFF7FAF094F7F8F094C2CF47
:1027F00060914D0370E090E080E00E94BF172DECE7
:102800003CEC4CEC5DE30E941E184B015C016091B6
:102810004C0370E090E080E00E94BF179B01AC0188
:10282000C501B4010E94F718E3966CAF7DAF8EAF7F
:102830009FAFE397E4E6F1E06491E0E5F1E0849195
:10284000E82FF0E0EE0FFF1FE75CFE4F85919491BB
:1028500000E412E42FE030E040E00E940211611534
:1028600071058105910529F06F5F7F4F8F4F9F4F55
:102870009F708090740290907502A0907602B09044
:102880007702860E971EA81EB91E8092740290923F
:102890007502A0927602B09277020E94FE0100912A
:1028A0007002109171022091720230917302601BCC
:1028B000710B820B930B693E73408105910508F4FF
:1028C000C5C0C501B4010E94BD1720E030E44CE151
:1028D00056E40E9463194B015C0120E030E040E4C3
:1028E00050E40E94101A2DEC3CEC4CE85FE30E948F
:1028F0001E182B013C01A5019401C501B4010E94E1
:102900001E1823E333E343E750E40E941E189B01A3
:10291000AC01C301B2010E94F6182B013C0120E07A
:1029200030E042E054E4C501B4010E941E189B014E
:10293000AC01C301B2010E94F71822E538EB4EE169
:102940005FE30E94F71860936C0270936D028093AE
:102950006E0290936F0210927402109275021092A0
:1029600076021092770282E691E00E94D709809069
:102970006C0290906D02A0906E02B0906F02A50163
:102980009401C501B4010E94601A882309F4F3C0C0
:1029900088E791E00E94D70988E491E00E94D70976
:1029A00084E891E00E941C0CFC01892B71F0948159
:1029B00090789C609483E3968CAD9DADAEADBFAD39
:1029C000E39780839183A283B3838DE891E00E9493
:1029D0001C0CFC01892B41F0948190789C609483BD
:1029E000C082D182E282F38289E991E00E941C0CCC
:1029F000FC01892B81F040916C0250916D02609135
:102A00006E0270916F02948190789C6094834083F1
:102A100051836283738388E293E00E944B0FADE29F
:102A2000B3E0BA83A9831C821B82BE016F5F7F4F14
:102A300088E293E00E94830C0E94FE016093700282
:102A400070937102809372029093730264E670E057
:102A5000CE01805B9F4F0E946E0F63968EAD9FAD3F
:102A6000639765969FAF8EAF659769968EAD9FAD64
:102A7000699767969FAF8EAF67976A961FAE6A9702
:102A80006F968FAD6F9780786F968FAF6F97E59643
:102A9000EEADFFADE597A996FFAFEEAFA99788E041
:102AA000FE01E959FF4FDE01A15ABF4F01900D927F
:102AB0008A95E1F788E0FE01E15AFF4FDE011196A9
:102AC00001900D928A95E1F719868DE293E09B873C
:102AD0008A871D86E596AEADBFADE597BF87AE8709
:102AE0004AE0E7966EAD7FADE797CE0101960E9472
:102AF000730A8C01892B59F48C85882309F4ACC1A5
:102B00006F968FAD6F9783FFA7C103E010E087EA50
:102B100091E00E94D709000F111FF801E95FFE4FF5
:102B2000808191810E94280A63968EAD9FAD639744
:102B3000009711F00E94721C80E090E0892B09F44C
:102B4000B6CD0E94A603882309F49FCD0E94000001
:102B50009CCD60914C0370914D03762767277627B3
:102B600090E080E00E94BD172DEC3CEC4CEC5DE366
:102B70000E941E1859CE24013501E89477F82FEFF2
:102B80003FEF4FE75FE7C301B2010E94601A811176
:102B90000DC02FEF3FEF4FE75FE7C301B2010E9487
:102BA000B81718161CF48CE791E0F4CE2FEF3FEF26
:102BB0004FE75FE4C501B4010E940B1A18161CF41C
:102BC00080E891E0E7CE2FEF3FEF4FE75FECC501E4
:102BD000B4010E94B81787FDF3CF20E030E0A901CF
:102BE000C501B4010E94B81787FF09C06DE281E8F2
:102BF00092E00E94DC03B7FAB094B7F8B0942AE0F0
:102C000037ED43EA5BE3C501B4010E94F7182B01DD
:102C10003C010E94DC194B015C010E94BD179B0125
:102C2000AC01C301B2010E94F6182B013C014AE03D
:102C3000C501B4010E94E4096EE281E892E00E94BD
:102C4000DC0320E030E040E251E4C301B2010E9425
:102C50001E182B013C010E94DC194B01B12CA12C48
:102C60004AE0C501B4010E94E409C501B4010E9413
:102C7000BD179B01AC01C301B2010E94F61820E010
:102C800030E040E251E40E941E180E94DC1990E0FE
:102C900080E04AE00E94E4097FCE60E070E0CB0172
:102CA000F1C08F3F09F0A5C086E080930001EAE102
:102CB000F1E014911F3F09F49CC0113021F150F054
:102CC000123009F43EC017FD94C061E086E00E9416
:102CD0006B010DC114BC15BC84B5826084BD85B583
:102CE000816085BDE3E5F1E0E491F0E0EE0FFF1FC8
:102CF000ED5BFE4F85919491E7E6F1E0E491E0937E
:102D0000560210E0EDC01092800010928100809178
:102D10008100886080938100809181008160809330
:102D20008100E3E5F1E0E491F0E0EE0FFF1FED5BE1
:102D3000FE4F85919491E7E6F1E0E491E09355022E
:102D4000CFC01092B0001092B1008091B0008260AC
:102D50008093B0008091B10081608093B100E3E581
:102D6000F1E0E491F0E0EE0FFF1FED5BFE4F859187
:102D700094919093540280935302E7E6F1E0E4913A
:102D8000E0935202ADC085B5887F846085BD86E43E
:102D900087BD8FEF9FEFDC0180935F02909360020D
:102DA000A0936102B093620280916E008260809372
:102DB0006E001FC0113009F047C080918100887FEC
:102DC00081608093810084E097E4909389008093F0
:102DD00088008FEF9FEFDC0180935B0290935C0291
:102DE000A0935D02B0935E0280916F008260809339
:102DF0006F0080916702882309F496CE0E94FE013D
:102E00000091630210916402209165023091660284
:102E1000601B710B820B930B009168021091690289
:102E200020916A0230916B02601771078207930745
:102E300008F47ACE81EC91E00E94280A86E00E9494
:102E400010031092670270CE123021F01111D1CF11
:102E500084E09ECF84E055C06BEC71E0C1010E941C
:102E6000510CF12CE12C009719F00E94E7087C012D
:102E70006FEA71E0C1010E94510C009709F40DCF77
:102E80000E948208609368027093690280936A02CC
:102E900090936B02C1010E944B0FEA94EF2809F056
:102EA000A8CF809167028111A9CF0E94FE01609393
:102EB000630270936402809365029093660281E0DE
:102EC0008093670288EB91E00E94280A80910001BC
:102ED000863009F0E6CEEAE1F1E0149117FD89CFE2
:102EE00061E086E00E946B01112309F44CCF12309F
:102EF00009F060CF8091B100887F85608093B10038
:102F00008DE88093B3008FEF9FEFDC018093570231
:102F100090935802A0935902B0935A028091700086
:102F200082608093700065CF80911F039091200391
:102F3000009711F00E94721C89E291E090932E0399
:102F400080932D0380915002909151028D529340B5
:102F500071F4E0914003F09141039081809142032C
:102F60008095892380831092510210925002089517
:102F70000E94FA1708F481E00895E89409C097FBCD
:102F80003EF490958095709561957F4F8F4F9F4F40
:102F90009923A9F0F92F96E9BB279395F695879584
:102FA00077956795B795F111F8CFFAF4BB0F11F447
:102FB00060FF1BC06F5F7F4F8F4F9F4F16C08823EE
:102FC00011F096E911C0772321F09EE8872F762F24
:102FD00005C0662371F096E8862F70E060E02AF065
:102FE0009A95660F771F881FDAF7880F9695879551
:102FF00097F90895990F0008550FAA0BE0E8FEEF26
:1030000016161706E807F907C0F012161306E407AC
:10301000F50798F0621B730B840B950B39F40A26A5
:1030200061F0232B242B252B21F408950A2609F483
:10303000A140A6958FEF811D811D08950E94311832
:103040000C94A2180E94941838F00E949B1820F04B
:10305000952311F00C948B180C94911811240C9456
:10306000D6180E94B31870F3959FC1F3950F50E0E6
:10307000551F629FF001729FBB27F00DB11D639F2A
:10308000AA27F00DB11DAA1F649F6627B00DA11DD0
:10309000661F829F2227B00DA11D621F739FB00D76
:1030A000A11D621F839FA00D611D221F749F3327E6
:1030B000A00D611D231F849F600D211D822F762F7F
:1030C0006A2F11249F5750409AF0F1F088234AF05C
:1030D000EE0FFF1FBB1F661F771F881F91505040C8
:1030E000A9F79E3F510580F00C948B180C94D618CC
:1030F0005F3FE4F3983ED4F3869577956795B7954F
:10310000F795E7959F5FC1F7FE2B880F911D969568
:10311000879597F9089597F99F6780E870E060E0D8
:1031200008959FEF80EC089500240A941616170660
:1031300018060906089500240A94121613061406A8
:1031400005060895092E0394000C11F4882352F00B
:10315000BB0F40F4BF2B11F460FF04C06F5F7F4FC3
:103160008F4F9F4F089557FD9058440F551F59F0AA
:103170005F3F71F04795880F97FB991F61F09F3F64
:1031800079F087950895121613061406551FF2CF8D
:103190004695F1DF08C0161617061806991FF1CFDD
:1031A00086957105610508940895E894BB27662704
:1031B0007727CB0197F908950E94E718A59F900DF6
:1031C000B49F900DA49F800D911D11240895A29F7E
:1031D000B001B39FC001A39F700D811D1124911DEB
:1031E000B29F700D811D1124911D08955058BB2769
:1031F000AA270E940E190C94A2180E94941838F065
:103200000E949B1820F039F49F3F19F426F40C9487
:1032100091180EF4E095E7FB0C948B18E92F0E94AF
:10322000B31858F3BA17620773078407950720F09D
:1032300079F4A6F50C94D5180EF4E0950B2EBA2F60
:10324000A02D0B01B90190010C01CA01A0011124AC
:10325000FF27591B99F0593F50F4503E68F11A1658
:10326000F040A22F232F342F4427585FF3CF4695E9
:1032700037952795A795F0405395C9F77EF41F160B
:10328000BA0B620B730B840BBAF09150A1F0FF0FD5
:10329000BB1F661F771F881FC2F70EC0BA0F621FC1
:1032A000731F841F48F4879577956795B795F795B1
:1032B0009E3F08F0B0CF9395880F08F09927EE0F46
:1032C0009795879508950E9477190C94A2180E94EB
:1032D0009B1858F00E94941840F029F45F3F29F0A1
:1032E0000C948B1851110C94D6180C9491180E94C0
:1032F000B31868F39923B1F3552391F3951B550B3C
:10330000BB27AA2762177307840738F09F5F5F4FB8
:10331000220F331F441FAA1FA9F335D00E2E3AF0F7
:10332000E0E832D091505040E695001CCAF72BD00F
:10333000FE2F29D0660F771F881FBB1F2617370760
:103340004807AB07B0E809F0BB0B802DBF01FF2792
:1033500093585F4F3AF09E3F510578F00C948B18CC
:103360000C94D6185F3FE4F3983ED4F38695779596
:103370006795B795F7959F5FC9F7880F911D96954B
:10338000879597F90895E1E0660F771F881FBB1FA7
:10339000621773078407BA0720F0621B730B840B54
:1033A000BA0BEE1F88F7E09508950E94DC19689427
:1033B000B1110C94D61808950E94BB1888F09F573D
:1033C00098F0B92F9927B751B0F0E1F0660F771F49
:1033D000881F991F1AF0BA95C9F714C0B13091F03F
:1033E0000E94D518B1E008950C94D518672F782F56
:1033F0008827B85F39F0B93FCCF386957795679504
:10340000B395D9F73EF490958095709561957F4F6F
:103410008F4F9F4F08950E94FA1708F48FEF089579
:10342000FA01EE0FFF1F309621053105A1F161155C
:10343000710561F48038BFE39B0749F168949038C7
:10344000810561F08038BFEF9B0741F099234AF571
:10345000FF3FE1053105210519F1E8940894E7954E
:10346000D901AA2329F4AB2FBE2FF85FD0F310C0E7
:10347000FF5F70F4A695E0F7F73950F019F0FF3AC6
:1034800038F49F779F930DD00F9007FC90580895C4
:1034900046F00C94911860E070E080E89FE3089596
:1034A0004FE79F775F934F933F932F930E94101B9B
:1034B0002F913F914F915F910E941E180C946D1AAD
:1034C0000E94FA17880B990B089529F416F00C94B2
:1034D0008B180C94D5180C9491180E94BB18A8F363
:1034E0009638A0F707F80F92E8942BE33AEA48EBF6
:1034F0005FE70E9434180F920F920F924DB75EB79C
:103500000F920E94581BE8E6F0E00E949F1A4F912C
:103510005F91EF91FF91E595EE1FFF1F49F0FE5778
:10352000E0684427EE0F441FFA95E1F74195550BEB
:103530000E94D21A0F9007FE0C94C61A0895DF93CA
:10354000CF931F930F93FF92EF92DF927B018C0139
:10355000689406C0DA2EEF010E943118FE01E8944B
:10356000A5912591359145915591A6F3EF010E94C2
:103570000E19FE019701A801DA9469F7DF90EF9028
:10358000FF900F911F91CF91DF9108959B01AC01A6
:1035900060E070E080E89FE30C9463190C948B1852
:1035A0000C948C1B0E94BB18D8F39923C9F3940F79
:1035B000511DA3F39150504094F059F0882332F0FC
:1035C000660F771F881F91505040C1F79E3F5105ED
:1035D0002CF7880F911D9695879597F908955F3F71
:1035E000ACF0983E9CF0BB27869577956795B7958C
:1035F00008F4B1609395C1F7BB0F58F711F460FF61
:10360000E8CF6F5F7F4F8F4F9F4FE3CF0C94D6185B
:1036100016F00C948C1B0C94911868940C948B18D5
:103620000E94BB18A8F39923C1F3AEF3DF93CF93A5
:103630001F930F93FF92C92FDD2788232AF021972C
:10364000660F771F881FDAF720E030E040E85FEB75
:103650009FE3883920F0803E38F021968F770E94D2
:10366000F718E0E9F0E004C00E94F718EDEBF0E095
:103670000E949F1A8B01BE01EC01FB2E6F5771094E
:103680007595771F880B990B0E94BF1728E132E7C9
:1036900041E35FE30E943118AF2D9801AE01FF9026
:1036A0000F911F91CF91DF910E940E190C94A218D7
:1036B000FA01DC01AA0FBB1F9B01AC01BF5728F424
:1036C000222733274427507820C0B75190F4AB2FDE
:1036D0000024469537952795011CA395D2F3002029
:1036E00071F0220F331F441FB395DAF30ED00C9400
:1036F000F61861307105A0E88A07B94630F49B01DD
:10370000AC016627772788279078309621F02083B0
:1037100031834283538308959F3F31F0915020F4C9
:10372000879577956795B795880F911D969587959D
:1037300097F90895AA1BBB1B51E107C0AA1FBB1F25
:10374000A617B70710F0A61BB70B881F991F5A952D
:10375000A9F780959095BC01CD010895A1E21A2E9C
:10376000AA1BBB1BFD010DC0AA1FBB1FEE1FFF1F25
:10377000A217B307E407F50720F0A21BB30BE40B75
:10378000F50B661F771F881F991F1A9469F76095BC
:103790007095809590959B01AC01BD01CF01089576
:1037A000EE0FFF1F0590F491E02D09940F931F93E6
:1037B000CF93DF938230910510F482E090E0E091A6
:1037C0006103F091620330E020E0B0E0A0E03097C8
:1037D00099F42115310509F44AC0281B390B24300E
:1037E0003105D8F58A819B816115710589F1FB014D
:1037F00093838283FE0111C0408151810281138134
:1038000048175907E0F04817590799F4109761F0E5
:1038100012960C93129713961C933296CF01DF9158
:10382000CF911F910F91089500936103109362034C
:10383000F4CF2115310551F04217530738F0A90193
:10384000DB019A01BD01DF01F801C1CFEF01F9CF22
:103850009093620380936103CDCFFE01E20FF31FCB
:10386000819391932250310939832883D7CF2091B6
:103870005F0330916003232B41F4209103013091C9
:1038800004013093600320935F0320910101309184
:1038900002012115310541F42DB73EB740910501D4
:1038A00050910601241B350BE0915F03F0916003FA
:1038B000E217F307A0F42E1B3F0B2817390778F007
:1038C000AC014E5F5F4F2417350748F04E0F5F1F66
:1038D0005093600340935F03819391939FCFF0E0F7
:1038E000E0E09CCFCF93DF930097E9F0FC013297A3
:1038F00013821282A0916103B0916203ED0130E066
:1039000020E01097A1F420813181820F931F209134
:103910005F03309160032817390709F061C0F09305
:103920006003E0935F03DF91CF910895EA01CE1722
:10393000DF07E8F54A815B819E0141155105B1F72A
:10394000E901FB83EA8349915991C40FD51FEC1714
:10395000FD0761F4808191810296840F951FE90132
:1039600099838883828193819B838A83F0E0E0E05E
:1039700012968D919C9113970097B9F52D913C91DA
:103980001197CD010296820F931F20915F03309112
:1039900060032817390739F6309751F51092620302
:1039A00010926103B0936003A0935F03BCCFD383F5
:1039B000C28340815181840F951FC817D90761F4D4
:1039C0004E5F5F4F88819981480F591F5183408313
:1039D0008A819B81938382832115310509F0B0CFC1
:1039E000F0936203E09361039ECFFD01DC01C0CF41
:1039F00013821282D7CF10E0CCEBD0E004C0FE01DE
:103A00000E94D01B2196CD3BD107C9F7F894FFCF78
:103A1000FF000063038000D201D501E001F001FD49
:103A200001060200000000DC033C03690329049A3C
:103A30000378038C030000000062043C03F504617A
:103A400004BE04D40449042F2F22225C5C62086661
:103A50000C6E0A720D7409000D0A0074727565000F
:103A600066616C7365006E756C6C005C753030302F
:103A70003000504D322E3520436F6E63656E747288
:103A80006174696F6E3A20006E616E00696E660047
:103A90006F76660068756D69646974790074656D28
:103AA000706572617475726500636F6E63656E74C4
:103AB000726174696F6E004572726F723A200064B1
:103AC00075726174696F6E00416C61726D206F6E0A
:103AD00000416C61726D206F66660062757A7A656E
:103AE00072004F6B00456D707479496E707574008B
:103AF000496E636F6D706C657465496E70757400A6
:103B0000496E76616C6964496E707574004E6F4DD4
:0E3B1000656D6F727900546F6F4465657000CB
:00000001FF
